:020000040800F2
:10000000680400203D0F0008B1010008B30100089A
:10001000B7010008BB010008BF0100080000000094
:10002000000000000000000000000000C301000804
:10003000C501000800000000C7010008C901000850
:10004000570F0008570F0008570F0008570F0008F8
:10005000570F0008570F0008570F0008570F0008E8
:10006000570F00080F09000823090008570F000860
:10007000570F0008570F0008570F0008570F0008C8
:10008000570F0008570F0008570F0008570F0008B8
:10009000570F0008570F0008570F0008570F0008A8
:1000A000570F0008570F0008570F0008570F000898
:1000B000570F0008570F0008570F0008570F000888
:1000C000570F0008570F0008570F0008570F000878
:1000D000570F00087F0E0008570F0008570F000841
:1000E000570F0008570F0008570F0008570F000858
:1000F000570F0008570F0008570F0008570F000848
:10010000570F0008570F0008570F0008570F000837
:10011000570F0008570F0008570F00081508000870
:10012000570F0008570F0008570F0008570F000817
:10013000570F0008570F0008570F0008570F000807
:10014000570F0008570F0008570F0008570F0008F7
:10015000570F0008570F0008570F0008570F0008E7
:10016000570F0008570F0008570F0008570F0008D7
:10017000570F0008570F0008570F0008570F0008C7
:10018000570F0008570F0008DFF80CD002F01EFDD3
:10019000004800479D010008680400204FF4A0605B
:1001A00000F0DEFE00F018FB00F007FC00BFFEE7E9
:1001B000704700BFFEE700BFFEE700BFFEE700BFDD
:1001C000FEE7704770477047704700000CB500208D
:1001D000019000907648006840F4803074490860CF
:1001E00000BF7348006800F4003000900198401C84
:1001F0000190009818B90198B0F5A04FF1D16C4862
:10020000006800F4003010B10120009001E00020EF
:1002100000900098012846D165484030006840F0C1
:1002200080506349403108606248006840F44040B3
:10023000604908605E48083000685D490831086020
:100240000846006840F4004008600846006840F432
:10025000A05008605848091F0860081F006840F057
:100260008070091F086000BF5148006800F00070EE
:100270000028F9D040F20570504908604C48083019
:10028000006820F003004A49083108600846006809
:1002900040F00200086000BF45480830006800F0E8
:1002A0000C000828F8D10CBD10B54548006840F492
:1002B0007000434908603E48006840F001003C4936
:1002C000086000203A4908310860394800683D4913
:1002D0000840374908603C48091D0860081F00684D
:1002E00020F48020091F0860002031490C3108608B
:1002F000FFF76CFF4FF0006031498039086010BD96
:1003000070B500200022022300240221284D083568
:100310002D6805F00C0020B1042806D0082834D13F
:1003200007E02A4D2A4E356033E02A4D284E3560CD
:100330002FE01F4D2D1D2D68C5F380541C4D2D1D24
:100340002D6805F03F0154B1224DB5FBF1F5184E73
:10035000361D3668C6F3881605FB06F209E01B4D0C
:10036000B5FBF1F5124E361D3668C6F3881605FB4F
:1003700006F20F4D2D1D2D68C5F301456D1C6B0058
:10038000B2FBF3F5124E356003E0104D104E3560B0
:1003900000BF00BF064D08352D68C5F303150E4E8E
:1003A000705D0B4D2D68C540094E356070BD000075
:1003B000003802400070004008544007003C0240F2
:1003C00088ED00E0FFFFF6FE103000240024F4006A
:1003D0000000002000127A00040000201CB501215A
:1003E000082002F017FA4FF4FC50009001208DF81D
:1003F000040002208DF8050000208DF80600012081
:100400008DF807006946F84800F0A0FE00224FF47E
:100410008071F54800F01AFF00224FF40071F24895
:1004200000F014FF01229102EF4800F00FFF0122BB
:10043000D102ED4800F00AFF00224FF48051EA4853
:1004400000F004FF01228021E74800F0FFFE1CBD00
:1004500000B58BB00121080402F036FA01214804EE
:1004600002F032FA0121880402F02EFA0121402024
:1004700002F019FA0121802002F015FA0121080288
:1004800002F011FA0121102002F0C4F9012120200C
:1004900002F0C0F90121022002F0BCF9032205217B
:1004A000D24800F0DEFE03220621D14800F0D9FE3A
:1004B00003220721CE4800F0D4FE09220E21CD48A8
:1004C00000F0CFFE09220821C94800F0CAFE092227
:1004D0001146C74800F0C5FE2020099002208DF883
:1004E000280003208DF8290000208DF82A00012023
:1004F0008DF82B0009A9BD4800F028FE4FF470705C
:10050000099002208DF8280003208DF82900002092
:100510008DF82A0001208DF82B0009A9B44800F0BD
:1005200015FE4FF48040099002208DF8280003202A
:100530008DF8290000208DF82A0001208DF82B006D
:1005400009A9AC4800F002FE0020ADF82000ADF88B
:100550001A004FF6FF7007900320ADF81800002036
:100560008DF8220006A9A44801F08BF906A9A3483A
:1005700001F087F906A9A24801F083F90020ADF83F
:100580002000ADF81A004FF6FF7007900120ADF87B
:10059000180000208DF8220006A99A4801F071F990
:1005A00006A9994801F06DF906A9984801F069F982
:1005B0006020ADF804000020ADF810000120ADF877
:1005C00006004FF6FF70039001A98B4801F0EEF989
:1005D00001A98A4801F0EAF901A9894801F0E6F980
:1005E00001A9884801F0E2F901A9874801F0DEF984
:1005F00001A9864801F0DAF900217F4801F0ACF941
:1006000000217E4801F0A8F900217D4801F0A4F9FD
:1006100000217C4801F0A0F900217B4801F09CF901
:1006200000217A4801F098F90021734801F04BFB52
:100630000021724801F047FB0021714801F043FBA3
:100640000021704801F03FFB00216F4801F03BFBA7
:1006500000216E4801F037FB0BB000BD2DE9F047DB
:1006600004460F4615461E46DDE90889002162480A
:1006700001F050F9A24604EBDA7041105E4801F037
:10068000EEFA21465C4801F047F900215B4801F091
:1006900041F9BA4607EBDA704110584801F0DFFA29
:1006A0003946564801F038F90021554801F032F931
:1006B000AA4605EBDA704110514801F0D0FA2946FC
:1006C0004F4801F029F900214E4801F023F9B246C4
:1006D00006EBDA7041104B4801F0C1FA3146494847
:1006E00001F01AF90021484801F014F9C24608EB5C
:1006F000DA704110444801F0B2FA4146424801F034
:100700000BF90021414801F005F9CA4609EBDA70FE
:1007100041103E4801F0A3FA49463C4801F0FCF87C
:10072000BDE8F0872DE9F04704460D4617461E4602
:10073000DDE9088922464FF480712B4800F086FDE0
:100740002A464FF40071284800F080FD3A464FF4E5
:100750008061254800F07AFD32464FF4006122485E
:1007600000F074FD42464FF480511F4800F06EFDCA
:100770004A4680211C4800F069FDBDE8F0871FB59E
:100780000121202002F08FF80020ADF80C00ADF818
:1007900006004CF24F3002905320ADF8040001A93E
:1007A0001B4801F06EF80121194801F01FFD0122DC
:1007B0001146174801F006FD37208DF80000012092
:1007C0008DF8010002208DF8020001208DF8030051
:1007D000684600F0CAFB1FBD10B5FFF7FFFDFFF72D
:1007E00037FEFFF7CCFF10BD000C024000100240A6
:1007F0000014024000040240004001400044014057
:100800000048014000180040001C0040002000404B
:100810000014004010B50121094801F0EAFC01284C
:100820000CD108480068401C0649086001210648B0
:1008300000F0A1F80121024801F0ECFC10BD00001D
:100840000014004018000020140000201CB50020F7
:100850008DF804001820009001208DF80700032077
:100860008DF805006946344800F070FC01208DF8D1
:1008700004008002009001208DF8070003208DF80D
:10088000050069462D4800F061FC1CBD0EB5FFF760
:10089000DDFF0121880302F017F80321042001F095
:1008A000A6FD0421084601F0A2FD182000900020BA
:1008B0008DF804000C208DF8050001208DF806004D
:1008C000684602F009F9082002F077F9102002F0DA
:1008D00074F909208DF8080001208DF80900022024
:1008E0008DF80A0001208DF80B0002A800F03DFBF6
:1008F0000A208DF8080003208DF809008DF80A0001
:1009000001208DF80B0002A800F02FFB0EBD10B5E2
:10091000082002F047F9012802D1082002F04DF921
:1009200010BD10B5102002F03DF9012802D11020B1
:1009300002F043F910BD0000001002400014024014
:1009400000BF704700BFFE4A128802F04002002A32
:10095000F9D0C2B2FA4B9A80704710B504462146CE
:10096000F74800F0D1FD00BF8021F54800F07CFE83
:100970000028F9D010BD70B505460E46002404E0ED
:10098000285DFFF7EAFF601C84B2B442F8DB70BD5B
:1009900070B502460B464FF6FF7000210AE0C5B263
:1009A000565C85EA06040012E64D35F8145068409E
:1009B0004D1CE9B29942F2DB70BD00B587B0012150
:1009C000084601F027FF0121102001F07DFF0722DA
:1009D0000921DD4800F045FC07220A21DA4800F031
:1009E00040FC4FF4C060059002208DF818008DF88F
:1009F000190000208DF81A0001208DF81B0005A9B0
:100A0000D14800F0A3FB4FF4E12001900020ADF8A5
:100A10000800ADF80A00ADF80C00ADF810000C208D
:100A2000ADF80E0001A9C64800F0BBFC0121C44886
:100A300000F03FFD2021C24800F023FE012240F2D9
:100A40002551BF4800F0EBFD25208DF80000022065
:100A50008DF801008DF8020001208DF80300684632
:100A600000F083FA07B000BD30B597B0044600200F
:100A70001590169013901490119012900F90109062
:100A80000D900E900B900C90089009900A90059094
:100A9000069007900390049000BF42E0215C15AAE5
:100AA0001154811D615C13AA115400F10C01615CA9
:100AB00011AA115400F11201615C0FAA115400F146
:100AC0001801615C0DAA115400F11E01615C0BAAB2
:100AD000115405A931F8101000EB4002012303EB7B
:100AE0004202A25C114305AA22F8101005A931F8B0
:100AF000101000EB4002022303EB4202A25C41EA29
:100B0000022105AA22F8101003A9095C00EB40029B
:100B1000032303EB4202A25C114303AA1154411CBC
:100B2000C8B20628BADB042115A8FFF731FFADF8DB
:100B30002000042113A8FFF72BFFADF822000421A9
:100B400011A8FFF725FFADF8240004210FA8FFF737
:100B50001FFFADF8260004210DA8FFF719FFADF81F
:100B6000280004210BA8FFF713FFADF82A009DF819
:100B700058009DF8591040EA0120BDF82010884225
:100B800031D19DF850009DF8511040EA0120BDF888
:100B90002210884227D19DF848009DF8491040EA6C
:100BA0000120BDF8241088421DD19DF840009DF819
:100BB000411040EA0120BDF82610884213D19DF86B
:100BC00038009DF8391040EA0120BDF8281088420D
:100BD00009D19DF830009DF8311040EA0120BDF8A0
:100BE0002A1088421DD00021584800F0D3FE002171
:100BF000574800F0CFFE0021564800F0CBFE002100
:100C0000554800F0C7FE0021544800F0C3FE002103
:100C1000534800F0BFFE0021524800F0BBFE17B061
:100C200030BD514800884FF6FF71884207D0BDF8AB
:100C30001400884203D10021454800F0ABFE4A4829
:100C400000884FF6FF71884207D1BDF81400884232
:100C500003D001213E4800F09DFE434840884FF6F6
:100C6000FF71884207D0BDF81600884203D10021E9
:100C7000384800F08FFE3C4840884FF6FF718842AC
:100C800007D1BDF81600884203D00121314800F099
:100C900081FE354880884FF6FF71884207D0BDF845
:100CA0001800884203D100212B4800F073FE2E4823
:100CB00080884FF6FF71884207D1BDF8180088423E
:100CC00003D00121244800F065FE2748C0884FF674
:100CD000FF71884207D0BDF81A00884203D1002175
:100CE0001E4800F057FE2048C0884FF6FF7188422A
:100CF00007D1BDF81A00884203D00121174800F03F
:100D000049FE194800894FF6FF71884207D0BDF8A7
:100D10001C00884203D10021114800F03BFE12481C
:100D200000894FF6FF71884207D1BDF81C00884248
:100D300003D001210A4800F02DFE0B48408915E040
:100D4000001001401A2C000800000240001400406E
:100D500000400140004401400048014000180040AC
:100D6000001C004000200040340000204FF6FF71BE
:100D7000884207D0BDF81E00884203D10021624896
:100D800000F008FE614840894FF6FF71884207D1A4
:100D9000BDF81E00884203D001215B4800F0FAFD37
:100DA000BDF81E00BDF81C10CDE90010BDF81A30CA
:100DB000BDF81820BDF81610BDF81400FFF74EFC62
:100DC0009DF811009DF81010CDE900109DF80F302E
:100DD0009DF80E209DF80D109DF80C00FFF7A2FC69
:100DE000002007E005A931F81010484A22F8101039
:100DF000411CC8B20628F5DB00BF10E710B5044659
:100E00002078BB281BD10121414800F0C3FD0121FE
:100E1000404800F0BFFD01213F4800F0BBFD01212B
:100E20003E4800F0B7FD01213D4800F0B3FD01212F
:100E30003C4800F0AFFD0121334800F0ABFD2078C5
:100E40001F281BD10021324800F0A4FD00213148A9
:100E500000F0A0FD0021304800F09CFD00212F484B
:100E600000F098FD00212E4800F094FD00212D484F
:100E700000F090FD0021244800F08CFD10BD10B55D
:100E800040F22551284800F005FC012835D12648BC
:100E900000F03EFBC4B22548254909784454244853
:100EA0000078401C2249087022480078844204D10E
:100EB00021480078401C204908701E480078844270
:100EC00002D000201C4908701A4804701A480078A3
:100ED000032807D11548FFF791FF00201449087037
:100EE0001449087012480078242805D10F48FFF7EC
:100EF000BBFD00200E49087000BF40F225510A4892
:100F000000F003FC10BD0000002000403400002071
:100F100000140040004001400044014000480140EE
:100F200000180040001C004000100140400000205C
:100F300022000020200000202100002006488047D9
:100F400006480047FEE7FEE7FEE7FEE7FEE7FEE7AE
:100F5000FEE7FEE7FEE7FEE7A902000889010008B8
:100F600032490143324A1160704770B500210023B5
:100F70000F22C4781CB32E4C246804F4E064C4F53A
:100F8000E064C4F30721C1F10404E3B20A414478E8
:100F90009C40E1B28478144021430C07210E254C7B
:100FA00005786155047804F01F050124AC400578EC
:100FB0006D11AD0005F1E025C5F8004109E00478A8
:100FC00004F01F050124AC401B4D0678761145F84E
:100FD000264070BD194A0A400243154B1B1F1A6078
:100FE000704739B1124A121D12680243104B1B1D83
:100FF0001A6006E00E4A121D126882430C4B1B1D3C
:101000001A607047042808D14FF0E021096941F0C7
:1010100004014FF0E022116107E04FF0E02109697F
:1010200021F004014FF0E022116170470000FA0541
:101030000CED00E000E400E080E100E080FFFF1F35
:1010400010B504469848844208D10121084601F0B1
:101050004CFC0021012001F048FC76E093488442DA
:1010600008D10121022001F040FC0021022001F002
:101070003CFC6AE08E48844208D10121042001F042
:1010800034FC0021042001F030FC5EE089488442F9
:1010900008D10121082001F028FC0021082001F0DE
:1010A00024FC52E08448844208D10121102001F040
:1010B0001CFC0021102001F018FC46E07F4884420F
:1010C00008D10121202001F010FC0021202001F096
:1010D0000CFC3AE07A48844208D10121402001F01A
:1010E00004FC0021402001F000FC2EE07548844201
:1010F00008D10121802001F0F8FB0021802001F0BF
:10110000F4FB22E07048844208D10121801501F0EF
:10111000ECFB0021A01501F0E8FB16E06B488442CF
:1011200008D10121401501F0E0FB0021601501F01C
:10113000DCFB0AE06648844207D10121001501F07A
:10114000D4FB0021201501F0D0FB10BDF0B50A46FC
:1011500000210023002400BF3DE0012505FA01F332
:10116000156805EA03049C4234D105684F00032644
:10117000BE40B543056015794E00B540066835435D
:1011800005601579012D02D01579022D16D18568DB
:101190004F000326BE40B543856055794E00B540EB
:1011A000866835438560456801268E40B5434560B5
:1011B000456896798E40B6B235434560C5684F00A4
:1011C0000326BE40B543C560D5794E00B540C6681C
:1011D0003543C560491C1029BFD3F0BD4FF6FF71E0
:1011E00001600021017141718171C171704708B5C1
:1011F0004FF480320092009A0A430092009AC26132
:10120000C161009AC261C2690092C269009208BDC0
:101210000246002013690B400BB1012000E00020C2
:1012200070470146086980B2704702460020536942
:101230000B400BB1012000E00020704701464869D7
:1012400080B2704701837047418370470AB10183C0
:1012500000E0418370474161704742694A40426102
:101260007047F0B5002300244D07ED0E02FA05F398
:10127000CE1000F1200555F826504E07F70E0F2628
:10128000BE40B543CF1000F1200646F82750CE10DF
:1012900000F1200555F8265045EA0304CE1000F170
:1012A000200545F82640F0BD000002400004024041
:1012B00000080240000C02400010024000140240EE
:1012C00000180240001C024000200240002402409E
:1012D0000028024010B50446FA48844208D1012192
:1012E000102001F046FB0021102001F042FB57E0E6
:1012F000F548844209D10121480401F029FB00216D
:101300004FF4003001F024FB4AE0F048844209D158
:101310000121880401F01CFB00214FF4802001F022
:1013200017FB3DE0EA48844209D10121C80401F0DD
:101330000FFB00214FF4002001F00AFB30E0E548EC
:10134000844209D10121080501F002FB00214FF47C
:10135000801001F0FDFA23E0DF48844208D101212A
:10136000202001F006FB0021202001F002FB17E005
:10137000DA48844209D10121880701F0E9FA002105
:101380004FF0804001F0E4FA0AE0D548844207D1EA
:101390000121400501F0DCFA0021600501F0D8FAD6
:1013A00010BD2DE9FF4705460E460024A14600BFAB
:1013B000A046B08900B100BF2C8A24F44054F088C4
:1013C00004432C82AC8941F20C608443B08831899B
:1013D0000843718908430443AC81AC8A24F4407407
:1013E000B0890443AC82684601F043F9B5488542B0
:1013F00002D0B948854202D1DDF80C9001E0DDF859
:101400000890A88900F4004040B109EBC90000EB46
:10141000091031684900B0FBF1F707E009EBC9009A
:1014200000EB091031688900B0FBF1F76420B7FBCD
:10143000F0F004012009642101FB1078A88900F470
:10144000004040B1322000EBC800B0FBF1F000F0EA
:101450000700044308E0322000EB08106421B0FBD1
:10146000F1F000F00F0004432C81BDE8FF874FF43A
:101470001651016000218180C18001810C214181D0
:1014800000218181704710B502460020108A20F4A7
:1014900070600B884C8823438C882343CC8823437B
:1014A0001843108210BD0021018041808180C180DD
:1014B000704721B1828942F40052828104E082891E
:1014C0004DF6FF731A4082817047028B02F47F420F
:1014D0000283028B0A430283704721B1828942F45E
:1014E0000042828103E08289C2F30E02828170474A
:1014F00021B1828A42F40062828204E0828A4FF241
:10150000FF731A4082827047C1F3080282807047DD
:1015100001468888C0F308007047028A4FF6F073CE
:101520001A400282028A0A430282704721B18289EC
:1015300042F00202828104E082894FF6FD731A4074
:101540008281704782894FF2FF731A4082818289BB
:101550000A4382817047028A4FF6DF731A40028283
:10156000028A0A430282704721B1028A42F4804211
:10157000028204E0028A4BF6FF731A40028270472F
:10158000818941F001018181704721B1828A42F055
:101590000802828204E0828A4FF6F7731A40828240
:1015A0007047028BD2B20283028B42EA012202838D
:1015B000704721B1828A42F02002828204E0828A4E
:1015C0004FF6DF731A408282704721B1828A42F05F
:1015D0001002828204E0828A4FF6EF731A40828200
:1015E0007047828A4FF6FB731A408282828A0A43CE
:1015F0008282704721B1828A42F00202828204E034
:10160000828A4FF6FD731A40828270471AB1838A2C
:101610000B43838202E0838A8B4383827047F0B559
:101620000346002400260025002040F66A17B94230
:1016300000D100BF1846C1F3421401F01F06012774
:1016400007FA06F5012C01D10C3004E0022C01D17F
:10165000103000E014301AB107682F43076002E031
:101660000768AF430760F0BD02460020B1F5007F78
:1016700000D100BF13880B400BB1012000E0002017
:10168000704701F40072B2F5007F00D100BFCA4379
:101690000280704770B50246002400230025002018
:1016A00040F66A16B14200D100BFC1F3421501F005
:1016B0001F03012606FA03F3012D13D19689334047
:1016C00017E00000001001400044004000480040C6
:1016D000004C0040005000400014014000780040E1
:1016E000007C0040022D02D1168A334001E0968A28
:1016F00033400C12012606FA04F41688344013B164
:101700000CB1012000E0002070BD10B500220023C4
:1017100040F66A14A14200D100BF0A12012494408D
:10172000A3B2DC43048010BD10B50446FE488442D9
:1017300008D10121084601F01CF90021012001F027
:1017400018F99DE0B4F1804F08D10121084601F05D
:10175000FFF80021012001F0FBF891E0F3488442FA
:1017600008D10121022001F0F3F80021022001F04C
:10177000EFF885E0EE48844208D10121042001F011
:10178000E7F80021042001F0E3F879E0E948844219
:1017900008D10121082001F0DBF80021082001F028
:1017A000D7F86DE0E448844208D10121102001F00F
:1017B000CFF80021102001F0CBF861E0DF4884422F
:1017C00008D10121202001F0C3F80021202001F0E0
:1017D000BFF855E0DA48844208D10121022001F027
:1017E000C8F80021022001F0C4F849E0D54884423D
:1017F00009D10121080401F0BCF800214FF4803028
:1018000001F0B7F83CE0D048844209D101214804F6
:1018100001F0AFF800214FF4003001F0AAF82FE0FA
:10182000CA48844209D10121880401F0A2F80021AC
:101830004FF4802001F09DF822E0C548844208D191
:101840000121402001F084F80021402001F080F8BF
:1018500016E0C048844208D10121802001F078F8C8
:101860000021802001F074F80AE0BB48844207D1CF
:101870000121801501F06CF80021A01501F068F835
:1018800010BD00220288A84B98420ED0AC4B984263
:101890000BD0B0F1804F08D0A44B984205D0A44B98
:1018A000984202D0A34B984204D14FF68F731A404E
:1018B0004B881A43A04B984207D0A04B984204D0C3
:1018C0004FF6FF431A400B891A4302804B68C362EC
:1018D0000B880385944B984202D0994B984201D1D2
:1018E0008B7A03860123838270474FF0FF3141607A
:1018F00000210180018141808172704701858282CF
:1019000070470A46002101884FF68F731940114332
:101910000180704741627047C16270470146486A62
:1019200070470146088D704721B1028842F00202DB
:10193000028004E002884FF6FD731A40028070476F
:1019400021B1028842F00402028004E002884FF6CE
:10195000FB731A400280704721B1028842F0800276
:10196000028004E002884FF67F731A4002807047BD
:1019700002884FF6F7731A40028002880A430280F9
:10198000704702884FF6FF431A40028002880A43DC
:101990000280704721B1028842F00102028004E017
:1019A00002884FF6FE731A400280704770B500241B
:1019B00000220023058C4FF6FE7635400584028C0C
:1019C0008388048B4FF68F752C40B51E2C400D88F4
:1019D0002C43751E2A408D892A434D882A43524D37
:1019E000A84202D0564DA84213D14FF6F7752A40AF
:1019F000CD892A434FF6FB752A408D882A434FF63E
:101A0000FF652B404FF6FF552B400D8A2B434D8A27
:101A10002B43838004838D684563028470BD70B559
:101A2000002400220023058C4FF6EF763540058414
:101A3000028C8388048B48F6FF752C404FF6FF45D7
:101A40002C400D884FF6FF7606EA05252C434FF60D
:101A5000DF752A408D8906EA05152A434D8806EA76
:101A600005152A43304DA84202D0354DA8421DD15C
:101A70004FF67F752A40CD894FF6FF7606EA0515A9
:101A80002A434FF6BF752A408D8806EA05152A437A
:101A90004FF6FF352B404FF2FF752B400D8A06EABB
:101AA00085052B434D8A06EA85052B4383800483F5
:101AB0008D688563028470BD70B500240022002308
:101AC000058C4FF6FF6635400584028C8388848B35
:101AD0004FF68F752C404FF6FC752C400D882C432B
:101AE0004FF6FF552A408D894FF6FF7606EA052509
:101AF0002A434D8806EA05252A430B4DA84202D009
:101B00000F4DA84238D14FF2FF752A40CD894FF6CC
:101B1000FF7606EA05252A434FF6FF352A408D88D1
:101B200006EA05252A4319E00000014000040040B0
:101B300000080040000C004000100040001400406D
:101B400000040140004001400044014000480140C1
:101B500000180040001C0040002000404EF6FF75B9
:101B60002B404DF6FF752B400D8A06EA05152B43D9
:101B70004D8A06EA05152B43838084838D68C563EF
:101B8000028470BD70B5002200230024058C4EF63F
:101B9000FF7635400584038C8488828B48F6FF7578
:101BA0002A404FF6FF452A400D884FF6FF7606EA99
:101BB00005252A434DF6FF752B408D8906EA05352C
:101BC0002B434D8806EA05352B43FE4DA84202D033
:101BD000FD4DA84208D14BF6FF752C400D8A4FF6FB
:101BE000FF7606EA85152C43848082838D68056420
:101BF000038470BD002101804180818081608181EA
:101C0000C18101824182704770B5034600200024E3
:101C10001846183001258D40ACB21D8CA5431D849B
:101C200009B108290AD100EB610005684FF68F76EB
:101C3000354005600568154305600FE00D1FC5F3CD
:101C40004E052844056848F6FF763540056005686E
:101C50004FF6FF7606EA02263543056070BD416304
:101C6000704781637047C1637047016470470A46DB
:101C70000021018B4FF68F73194011430183704788
:101C80000A460021018B48F6FF7319404FF6FF7397
:101C900003EA02231943018370470A460021818B1E
:101CA0004FF68F7319401143818370470A46002114
:101CB000818B48F6FF7319404FF6FF7303EA022346
:101CC0001943818370470A460021018B4FF6F77351
:101CD00019401143018370470A460021018B4FF2DE
:101CE000FF7319404FF6FF7303EA02231943018380
:101CF00070470A460021818B4FF6F7731940114354
:101D0000818370470A460021818B4FF2FF7319408F
:101D10004FF6FF7303EA02231943818370470A4693
:101D20000021018B4FF6FB7319401143018370476B
:101D30000A460021018B4FF6FF3319404FF6FF731F
:101D400003EA02231943018370470A460021818B6D
:101D50004FF6FB7319401143818370470A460021F7
:101D6000818B4FF6FF3319404FF6FF7303EA0223CE
:101D70001943818370470A460021018B4FF67F7318
:101D800019401143018370470A460021018BC1F3BA
:101D90000E014FF6FF7303EA0223194301837047D4
:101DA0000A460021818B4FF67F73194011438183CE
:101DB00070470A460021818BC1F30E014FF6FF7375
:101DC00003EA02231943818370470A460021018CEC
:101DD0004FF6FD7319401143018470470A460021F4
:101DE000018C4FF6F77319401143018470470A467E
:101DF0000021018C4FF6DF7319404FF6FF7303EAA1
:101E000002131943018470470A460021018C4FF6E2
:101E10007F7319404FF6FF7303EA021319430184DD
:101E200070470A460021018C4FF6FF5319404FF6C8
:101E3000FF7303EA02231943018470470A46002115
:101E4000018C4FF2FF7319404FF6FF7303EA022330
:101E50001943018470470A460021018C4DF6FF7337
:101E600019404FF6FF7303EA0233194301847047A8
:101E700030B5002301248C40A3B2048C9C4304841D
:101E8000048C02FA01F5ADB22C43048430BD30B5A8
:101E9000002304248C40A3B2048C9C430484048C4F
:101EA00002FA01F5ADB22C43048430BD828B4FF2AF
:101EB000FF331A408283828B4FF6FF7303EA0123BC
:101EC0001A4382837047F0B50C4615460021002264
:101ED0000026078C4EF6FF7C07EA0C070784818BEF
:101EE000028C4FF6FF7707EA043640F6FF47394089
:101EF0004FF6FF7707EA052739434FF6FF7707EAE2
:101F00000337394345F6FF773A4046F480573A4362
:101F100081830284F0BD828B4FF6F3731A40828373
:101F2000828B0A4382837047F0B50C461546002128
:101F300000220026078C4FF6FF6C07EA0C07078487
:101F4000818B028C4FF6FF7707EA04264FF60C7759
:101F500039404FF6FF7707EA03172F4339434FF213
:101F6000FF573A4046F480773A4381830284F0BDBC
:101F7000028B4FF2FF331A400283028B4FF6FF733E
:101F800003EA01231A4302837047F0B50C46154655
:101F9000002100220026078C4FF6EF7C07EA0C0791
:101FA0000784018B028C4FF6FF7707EA041640F690
:101FB000FF4739404FF6FF7707EA033739434FF6BB
:101FC000FF7703E0000001400004014007EA052715
:101FD00039434FF65F773A4046F010073A430183A2
:101FE0000284F0BD028B4FF6F3731A400283028B1A
:101FF0000A4302837047F0B50C46154600210022C3
:10200000068C4FF6FE773E400684018B028C4FF61D
:102010000C7631407E1C06EA03162E4331434FF600
:10202000F576324044F00106324301830284F0BD6C
:1020300070B505460C46208850B92389A28861886E
:102040002846FFF7D8FFE1882846FFF7CBFF25E0B9
:10205000208804280AD12389A28861882846FFF7AE
:1020600094FFE1882846FFF783FF17E020880828BF
:102070000AD12389A28861882846FFF755FFE188A5
:102080002846FFF748FF09E02389A288618828468F
:10209000FFF719FFE1882846FFF708FF70BD002110
:1020A00001804180012181800021C1800181704730
:1020B0002DE9F04105460C4600260127608808B945
:1020C000022600E00026A088012801D1022700E0B6
:1020D00001272088A0B92389A28861882846FFF7B4
:1020E0008AFFE1882846FFF77DFF23893A4631467B
:1020F0002846FFF74AFFE1882846FFF739FF13E03B
:102100002389A28861882846FFF73FFFE188284697
:10211000FFF72EFF23893A4631462846FFF76BFF2B
:10212000E1882846FFF75EFFBDE8F0810146486B75
:1021300070470146886B70470146C86B704701467F
:10214000086C70470A884B881A438B881A43CB88DF
:102150001A430B891A434B891A438B891A43A0F8F7
:10216000442070470021018041808180C18001812D
:1021700041818181704731B1B0F8442042F400427E
:10218000A0F8442005E0B0F84420C2F30E02A0F805
:102190004420704721B1828842F00402828004E02A
:1021A00082884FF6FB731A408280704721B1828883
:1021B00042F00102828004E082884FF6FE731A40EA
:1021C000828070471AB183890B43838102E083893F
:1021D0008B43838170478182704702460020138AB7
:1021E0000B400BB1012000E000207047CA4302827F
:1021F000704730B50246002000230024158A05EA06
:102200000103958905EA010413B10CB1012000E036
:10221000002030BDCA430282704741EA0203A0F8A1
:10222000483070471AB183890B43838102E0838968
:102230008B438381704721B1828842F008028280FB
:1022400004E082884FF6F7731A4082807047018954
:102250004FF6F8721140018170470A46002101894A
:102260004FF68F73194011430181704730B5044612
:102270000D4629462046FFF7F0FF208940F0070071
:10228000208130BD2DE9F04104460D4616461F461B
:10229000602D06D13B46012231462046FFF775FEF0
:1022A00005E03B46012231462046FFF7A4FE2946C1
:1022B0002046FFF7D2FF208940F007002081BDE8CB
:1022C000F08130B50C4600210189C9B24FF6FF7587
:1022D00005EA0325154325432943018130BD2DE936
:1022E000F04105460E4617469846002443463A46B6
:1022F00031462846FFF7E5FF2C894FF6F870044079
:1023000044F007044FF68F70044044F070042C81B1
:10231000BDE8F081F0B504460D4616461F463B4623
:10232000324629462046FFF7CCFF208940F4804002
:102330002081F0BD82884FF68F731A408280828898
:102340000A438280704702894FF6F8731A4002816F
:1023500002890A430281704702894FF67F731A404F
:10236000028102890A4302817047F0B50C46154686
:102370001E460021002200230189028B038C4FF6A8
:10238000F877394021434FF6FC473A4040F20117B5
:102390003A434FF6DD773B404FF6FF7707EA0617E3
:1023A0002F433B43018102830384F0BD21B1828826
:1023B00042F08002828004E082884FF67F731A40E8
:1023C00082807047A0F850107047000010B50121BE
:1023D000880300F0CEFA00214FF4804000F0C9FAE3
:1023E00010BD1C49086070471B490862704730B532
:1023F00000228B071C0F0F2303FA04F2154B08333E
:102400008C1053F824309343124C08348D1044F848
:10241000253023468C1053F824308C07240F00FA03
:1024200004F423430B4C08348D1044F8253030BDA0
:102430000949DC310860704708490860704700208E
:1024400004492031096801F4807109B1012000E0DC
:102450000020704700380140000027420004274256
:10246000F948006840F00100F74908600020F6498B
:1024700008310860F4480068F4490840F2490860EF
:10248000F348091D0860F348EF4984310860F048BB
:102490001038091D0860EC48006820F48020EA49E3
:1024A00008600020E8490C310860E7498C31086079
:1024B00070470021E44A921C117011460870704761
:1024C00010B501460022002300204A11012A02D142
:1024D000DD4C236808E0022A03D1DB4C703423680A
:1024E00002E0D94C7434236801F01F0201249440A7
:1024F0001C400CB1012000E0002010BD38B50020C8
:1025000000900024002500BF3120FFF7D9FF0546C9
:102510000098401C00900098B0F5A04F01D0002D0D
:10252000F2D03120FFF7CCFF08B1012400E00024F5
:10253000204638BD01460020C34A106820F0F8004C
:1025400040EAC10010607047C3490860704700212D
:10255000BD4A703211701170012802D004280AD1CE
:1025600004E00121B84A7032117005E00521B64A35
:102570007032117000E000BF00BF7047B7490860BB
:10258000704770B5049C41EA82150126C6EB5306DC
:1025900045EA0645054345EA0465AB4E361D356000
:1025A00070BDAD4908667047820142EA0172A64BD0
:1025B00084331A607047A8498866704710B5830154
:1025C00043EA016343EA02739F4C8834236010BDE1
:1025D000A14908677047A049C864704702460020B7
:1025E000994B0833186820F0EC6042EA0103184365
:1025F000954B08331860704702460020924B083311
:10260000186820F0784042EA010318438E4B0833E3
:1026100018607047014600208B4A0832106820F08D
:10262000030008431060704787480830006800F0D6
:102630000C00704701460020834A0832106820F0E1
:10264000F000084310607047014600207E4A0832BF
:10265000106820F4E05008431060704701460020E5
:10266000794A0832106820F4604040EAC1001060E6
:102670007047F0B500210022002402250026022325
:10268000714F08373F6807F00C0121B1042905D0CC
:10269000082937D105E0724F076036E0714F0760B7
:1026A00033E0694F3F1D3F68C7F38056664F3F1DBB
:1026B0003F6807F03F036EB16A4FB7FBF3F7DFF8EF
:1026C00088C10CF1040CDCF800C0CCF3881C07FBBB
:1026D0000CF40CE0624FB7FBF3F7DFF86CC10CF1C0
:1026E000040CDCF800C0CCF3881C07FB0CF4564F3C
:1026F0003F1D3F68C7F301477F1C7D00B4FBF5F722
:10270000076002E0564F076000BF00BF4E4F08371A
:102710003F6807F0F0010909534F7A5C0768D7401A
:102720004760494F08373F6807F4E051890A4E4F28
:102730007A5C4768D7408760434F08373F6807F4A3
:102740006041490B484F7A5C4768D740C760F0BD8D
:10275000002100F44072B2F5407F0AD13A4A0832B3
:10276000116821F4F811414A02401143364A0832F7
:102770001160354A70321268C0F30B031A43324BB2
:1027800070331A60704735494439086070473349DF
:10279000403908607047364908607047014600209C
:1027A000294A8C32106820F01F004A1E1043264A26
:1027B0008C321060704701460020234A8C3210682A
:1027C00020F4F8504A1E40EA02201F4A8C32106062
:1027D0007047014600201C4A8C32106820F44010DB
:1027E00008431060704701460020174A8C32106879
:1027F00020F4400008431060704701460020124A50
:102800008C32106820F4403008431060704719493A
:102810000860704739B10C4A3032126802430A4BE3
:1028200030331A6006E0084A303212688243064BA1
:1028300030331A607047F9B1034A343212680243E8
:10284000014B34331A601CE000380240FFFFF6EA07
:10285000103000240030002000004742800E474224
:102860000024F40000127A0023000020FFFCFF0F78
:102870005C014742E01147428F4A126882438E4B07
:102880001A60704739B18C4A121D126802438A4B94
:102890001B1D1A6006E0884A121D12688243864B8F
:1028A0001B1D1A60704739B1834A0C32126802430B
:1028B000814B0C331A6006E07F4A0C321268824367
:1028C0007D4B0C331A60704739B17B4A1032126865
:1028D0000243794B10331A6006E0774A10321268CF
:1028E0008243754B10331A60704739B1724A243AEB
:1028F00012680243704B243B1A6006E06E4A243A89
:10290000126882436C4B243B1A60704739B16A4AA3
:10291000203A12680243684B203B1A6006E0664A80
:10292000203A12688243644B203B1A60704739B1E9
:10293000614A1C3A126802435F4B1C3B1A6006E076
:102940005D4A1C3A126882435B4B1C3B1A6070471D
:1029500039B1594A143A12680243574B143B1A6072
:1029600006E0554A143A12688243534B143B1A60EE
:10297000704739B1504A103A126802434E4B103B2F
:102980001A6006E04C4A103A126882434A4B103BE8
:102990001A60704739B1484A1C3212680243464BEC
:1029A0001C331A6006E0444A1C3212688243424BD0
:1029B0001C331A60704739B13F4A20321268024313
:1029C0003D4B20331A6006E03B4A203212688243B6
:1029D000394B20331A60704739B1374A24321268B4
:1029E0000243354B24331A6006E0334A243212681E
:1029F0008243314B24331A60704739B12E4A2C324E
:102A0000126802432C4B2C331A6006E02A4A2C32FF
:102A100012688243284B2C331A60704739B1264A1A
:102A2000303212680243244B30331A6006E0224AE7
:102A3000303212688243204B30331A6070470128CD
:102A400008D11D493C31096841F008011A4A3C325D
:102A5000116007E018493C31096821F00801164A65
:102A60003C321160704739B1134A273A1278024359
:102A7000114B273B1A7006E00F4A273A127882431F
:102A80000D4B273B1A7070470B484030006840F0F0
:102A90008070094940310860704701460020064AAD
:102AA000283A12680A400AB1012000E0002070476D
:102AB00001492639087070473438024000204149E6
:102AC0000860091D0860091D0860091D08603E486E
:102AD0003C4914310860704700213A498279002A44
:102AE0003AD00A46126803689A430B461A600A1DD8
:102AF000126803689A430B1D1A60027911440A6830
:102B000003681A430A602F4A0832126803689A431E
:102B10002C4B08331A601A1D126803689A43294B1C
:102B20000C331A604279102A0ED11A1F12680368FA
:102B30001A43244B08331A601A1D126803681A439B
:102B4000204B0C331A600DE01E49427911440A688B
:102B500003681A430A6005E0027911440A680368B1
:102B60009A430A6070470021016001710C21417194
:102B70000021817170471349103109680143114ADE
:102B8000103211607047014600200E4A143212685C
:102B90000A400AB1012000E00020704709491431C1
:102BA0000860704701460020064A143212680A4045
:102BB0000AB1012000E0002070470249143108608A
:102BC00070470000003C0140FFFF7F00064C074DAE
:102BD00006E0E06840F0010394E8070098471034ED
:102BE000AC42F6D3FDF7D4FA1C2E00083C2E0008A8
:102BF00002E008C8121F08C1002AFAD170477047C6
:102C0000002001E001C1121F002AFBD17047111101
:102C100011111111FFFFFFFFFFFF0000C1C081C1B3
:102C2000400101C3C003800241C201C6C006800743
:102C300041C70005C1C581C4400401CCC00C800D52
:102C400041CD000FC1CF81CE400E000AC1CA81CB59
:102C5000400B01C9C009800841C801D8C0188019BB
:102C600041D9001BC1DB81DA401A001EC1DE81DFC1
:102C7000401F01DDC01D801C41DC0014C1D481D582
:102C8000401501D7C017801641D601D2C01280135B
:102C900041D30011C1D181D0401001F0C03080314A
:102CA00041F10033C1F381F240320036C1F681F7C1
:102CB000403701F5C035803441F4003CC1FC81FD52
:102CC000403D01FFC03F803E41FE01FAC03A803BDB
:102CD00041FB0039C1F981F840380028C1E881E999
:102CE000402901EBC02B802A41EA01EEC02E802F43
:102CF00041EF002DC1ED81EC402C01E4C024802582
:102D000041E50027C1E781E640260022C1E281E3D8
:102D1000402301E1C021802041E001A0C06080612A
:102D200041A10063C1A381A240620066C1A681A740
:102D3000406701A5C065806441A4006CC1AC81AD51
:102D4000406D01AFC06F806E41AE01AAC06A806B5A
:102D500041AB0069C1A981A840680078C1B881B9B8
:102D6000407901BBC07B807A41BA01BEC07E807FC2
:102D700041BF007DC1BD81BC407C01B4C074807581
:102D800041B50077C1B781B640760072C1B281B358
:102D9000407301B1C071807041B00050C190819109
:102DA00040510193C053805241920196C0568057C2
:102DB00041970055C19581944054019CC05C805D51
:102DC000419D005FC19F819E405E005AC19A819BD8
:102DD000405B0199C059805841980188C04880499A
:102DE0004189004BC18B818A404A004EC18E818F40
:102DF000404F018DC04D804C418C0044C184818581
:102E000040450187C047804641860182C0428043D9
:102E100041830041C1818180404000003C2E000878
:102E20000000002034000000F02B0008702E000885
:102E30003400002034040000002C0008007A030A4B
:102E4000000000000000000001020304060708095A
:102E5000340000000000000000000000000000003E
:102E60000000000102030401020304060708090030
:040000050800018965
:00000001FF
